:03000000020003F8
:0C000300787FE4F6D8FD75812C02004ADD
:10014800BCBAB8B5B3B1AFACAAA8A6A5A4A3A19EE2
:100158009B9895928F8B888582807D7A777573704E
:100168006E6C69676563615F5D5B59575553514FA5
:030178004D4C4AA1
:10017B000E0DC0F9A4B0999282F88090FFC6C88E7C
:10018B000E1BC0CFA4868B9290C78082FFF0C1B1AB
:0F019B0004290000000004090000000001080012
:0701D800AE071FEE70FA22D2
:10008F00740D2529F8E6F5A0E509600353A07FC29A
:10009F00B27F141201D8D2B27F021201D8740D258B
:1000AF002AF8E6F5A0E50A600353A07FC2B37F14D8
:1000BF001201D8D2B37F021201D8741B252BF8E698
:1000CF00F5A0E50B600353A07FC2B47F141201D8D3
:1000DF00D2B47F021201D8740D252CF8E6F5A0E5F5
:1000EF000C600353A07FC2B57F141201D8D2B57F25
:0400FF00020201D820
:1001AB00AD07AC06ED1DAE0470011C4E60051200D0
:0401BB008F80F1221E
:0701DF00AE071FEE70FA22CB
:0E01BF00759DC0E4F5BD75BC807FC80201DFF0
:0601E600EF4488F5BC2285
:0B01CD00E5BC30E4FB53BCEFAFBD22EB
:100103001201BF7F071201E61201CD8F08E4FBEB5A
:1001130090014893FFE508D39F50040BBB32F01BBB
:100123008B08750B01752B0B752C0AE50875F00A06
:1001330084F529E50875F00A8485F02A7F107E2767
:050143001201AB80BEBB
:10000F00020103E493A3F8E493A34003F68001F203
:10001F0008DFF48029E493A3F85407240CC8C333F2
:10002F00C4540F4420C8834004F456800146F6DFC1
:10003F00E4800B010204081020408090017BE47ED5
:10004F00019360BCA3FF543F30E509541FFEE493B6
:10005F00A360010ECF54C025E060A840B8E493A37D
:10006F00FAE493A3F8E493A3C8C582C8CAC583CAA8
:10007F00F0A3C8C582C8CAC583CADFE9DEE780BE60
:0101AA000054
:00000001FF
