:030000000200B04B
:0C00B000787FE4F6D8FD7581330200F77C
:0E03620080828486888A8C81838587898B8D32
:1002DE000A0CC0F9A4B0999282F880900A16C0CF89
:1002EE00A4868B9290C78082042700000000040829
:0D02FE0000000000072000140C0907040F89
:07037000AE071FEE70FA2238
:1001C300740C2527F8E6F5A0E508600353A07FC269
:1001D300B27F14120370D2B27F02120370740C2523
:1001E30028F8E6F5A0E509600353A07FC2B37F14A6
:1001F300120370D2B37F0212037074162529F8E636
:10020300F5A0E50A600353A07FC2B47F1412037004
:10021300D2B47F02120370740C252AF8E6F5A0E528
:100223000B600353A07FC2B57F14120370D2B57F56
:040233000202037050
:0E035400AD07AF051DEF60051201C380F52255
:10033000E4FEC292EF139291EFC313FFD2920EBE6E
:0403400008F0D2915E
:010344002296
:0F034500C292D290120330AF05120330C2902241
:10030C00E4FDC292D291D290120330E4FFEDC313FC
:10031C00FDC292309103430580D2920FBF08EEC20A
:03032C0090AF058A
:01032F0022AB
:08029A008B2D8A2E892F8D3077
:1002A2007531FF753203753369E4FCECC395305048
:1002B2002AAB31AA32A933120003FF12030CAB2D71
:1002C200AA2EA92F8C82758300EF12008E7401254D
:0B02D20033F533E43532F5320C80D0F8
:0102DD0022FE
:06013C008B2D8A2E892F95
:10014200E4FCAB2DAA2EA92F8C8275830012001C11
:1001520075F00A84FFE92CF9E43AFA12000375F00B
:100162000A84E5F012007CEFC454F0AB2DAA2EA94C
:100172002F8C827583001200490CBC07C5E4FD7FF9
:100182008E1203457530FF753103753262E4FCABA4
:1001920030AA31A932120003FFAB2DAA2EA92F8C4F
:1001A2008275830012001CFD12034574012532F58D
:1001B20032E43531F5310CBC07D57D807F8E0203E8
:0101C20045F7
:10023700752C01C2907B007A00792012013CE52CD5
:100247006027E4F52CFB7A0079207D0412029AE5F9
:1002570022C4540FF527E522540FF528E521C4548D
:100267000FF529E521540FF52A7B007A0079207DC7
:100277000112029AE520652B601285202BE52B548D
:1002870001F509F50AE52B7003752C017F6412034C
:030297005480ABE5
:1000BC00020237E493A3F8E493A34003F68001F221
:1000CC0008DFF48029E493A3F85407240CC8C33345
:1000DC00C4540F4420C8834004F456800146F6DF14
:1000EC00E4800B01020408102040809002DEE47EC4
:1000FC00019360BCA3FF543F30E509541FFEE49309
:10010C00A360010ECF54C025E060A840B8E493A3CF
:10011C00FAE493A3F8E493A3C8C582C8CAC583CAFA
:10012C00F0A3C8C582C8CAC583CADFE9DEE780BEB2
:01030B0000F1
:10000300BB010689828A83E0225002E722BBFE02FB
:09001300E32289828A83E493222E
:10001C00BB010CE58229F582E5833AF583E0225099
:10002C0006E92582F8E622BBFE06E92582F8E222E3
:0D003C00E58229F582E5833AF583E49322FD
:10004900BB010FF8E58229F582E5833AF583E028BB
:10005900F0225009C58229F8E58226F622BBFE095D
:10006900C58229F8E22582F222F8EA2583F583E997
:03007900932822A7
:10007C00BB010689828A83F0225002F722BBFE0163
:02008C00F3225D
:10008E00F8BB010DE58229F582E5833AF583E8F0A8
:10009E00225006E92582C8F622BBFE05E92582C854
:0200AE00F2223C
:00000001FF
