:030000000201EF0B
:0C01EF00787FE4F6D8FD75813F020236EF
:1004CF0080828486888A8C81838587898B8D3B3B4C
:0504DF00171F0C07636C
:100432000B0CC0F9A4B0999282F88090FF0B18C0FF
:10044200CFA4868B9290C78082FF042A000000000E
:10045200040800000000072300140C0907040F0120
:020462002E006A
:07050700AE071FEE70FA229F
:10037A00740C252AF8E6F5A0E508600353A07FC2AD
:10038A00B27F14120507D2B27F02120507740C2538
:10039A002BF8E6F5A0E509600353A07FC2B37F14EA
:1003AA00120507D2B37F021205077418252CF8E646
:1003BA00F5A0E50A600353A07FC2B47F14120507B3
:1003CA00D2B47F02120507740C252DF8E6F5A0E5D4
:1003DA000B600353A07FC2B57F14120507D2B57F05
:0403EA0002020507FF
:1004E400AD07AC06ED1DAE0470011C4E6005120391
:0404F4007A80F122F7
:1004BA00E4FEC292EF139291EFC313FFD2920EBEE3
:0404CA0008F0D291D3
:0104CE00220B
:0F04F800C292D2901204BAAF051204BAC2902277
:10049400E4FDC292D291D2901204BAE4FFEDC313E8
:1004A400FDC292309103430580D2920FBF08EEC281
:0504B40090D291AF059C
:0104B9002220
:0803EE008B318A3289338D3412
:1003F6007535FF7536047537D6E4FCECC395345075
:100406002AAB35AA36A937120142FF120494AB3142
:10041600AA32A9338C82758300EF1201CD740125AF
:0B04260037F537E43536F5360C80D092
:0104310022A8
:06027B008B3A8A3B893C2E
:10028100E4FCAB3AAA3BA93C8C8275830012015B6A
:1002910075F00A84FFE92CF9E43AFA12014275F08B
:1002A1000A84E5F01201BBEFC454F0AB3AAA3BA9B2
:1002B1003C8C827583001201880CBC07C5E4FD7F6C
:1002C1008E1204F8753DFF753E04753FCFE4FCAB1B
:1002D1003DAA3EA93F120142FFAB3AAA3BA93C8C81
:1002E1008275830012015BFD1204F87401253FF54C
:1002F1003FE4353EF53E0CBC07D57D807F8E020480
:01030100F803
:07050E00AE071FEE70FA2298
:10046500A2B082B14023C2957F6412050EA2B0826C
:10047500B1401BE52E701720B105751701800620C8
:0F048500B00C751702752E0122E4F52ED29522C8
:10000300E4FF753201120465E4F5177F0174232FB1
:10001300F8E6FEC4540FF531EE540FFE74332FF897
:10002300A60674332FF8E6FEE53175F00AA42EF622
:100033000FBF07D9E4F5317F0F7E001204E41204E9
:1000430065E517603924FE601B04702FE5329004C8
:10005300DD93FF74332532F8E6C39F500306801BFC
:10006300E4F680170532E532D39406400EE4F53307
:10007300FB7A00793312027BD29522E4F517E5313E
:10008300600302010EE53224FE6010146030146038
:100093002D14604D14605D24057070750901750A97
:1000A30001E53575F00A84F52AE53575F00A84858E
:1000B300F02BE53475F00A84F52CE5348046E4F53D
:1000C30009750A01E53775F00A84F52AE53775F0F5
:1000D3000A8485F02BE53675F00A84F52CE5368025
:1000E30023E4F509F50A752A0A752B0A752C0A8586
:1000F300382D8017752A02E4F52BE53975F00A844B
:10010300F52CE53975F00A8485F02DE531B4B42A70
:10011300E53224FE601024FE600C240324FB50040B
:10012300600C8016800E752A0A752B0A800C752ABE
:0F0133000A752B0A752C0A752D0A053102003A40
:10030200753001C2907B007A00792312027B20B003
:10031200107F887E131204E420B1061200037530A8
:1003220001E5306027E4F530FB7A0079237D07127E
:1003320003EEE525C4540FF52AE525540FF52BE508
:1003420024C4540FF52CE524540FF52D7B007A00BC
:1003520079237D011203EEE523652F601285232F99
:10036200E52F5401F509F50AE52F70037530017F79
:08037200647E001204E4809691
:1001FB00020302E493A3F8E493A34003F68001F215
:10020B0008DFF48029E493A3F85407240CC8C33304
:10021B00C4540F4420C8834004F456800146F6DFD3
:10022B00E4800B0102040810204080900432E47E2D
:10023B00019360BCA3FF543F30E509541FFEE493C8
:10024B00A360010ECF54C025E060A840B8E493A38F
:10025B00FAE493A3F8E493A3C8C582C8CAC583CABA
:10026B00F0A3C8C582C8CAC583CADFE9DEE780BE72
:010464000097
:10014200BB010689828A83E0225002E722BBFE02BB
:09015200E32289828A83E49322EE
:10015B00BB010CE58229F582E5833AF583E0225059
:10016B0006E92582F8E622BBFE06E92582F8E222A3
:0D017B00E58229F582E5833AF583E49322BD
:10018800BB010FF8E58229F582E5833AF583E0287B
:10019800F0225009C58229F8E58226F622BBFE091D
:1001A800C58229F8E22582F222F8EA2583F583E957
:0301B80093282267
:1001BB00BB010689828A83F0225002F722BBFE0123
:0201CB00F3221D
:1001CD00F8BB010DE58229F582E5833AF583E8F068
:1001DD00225006E92582C8F622BBFE05E92582C814
:0201ED00F222FC
:00000001FF
