:0300000002040AED
:0C040A00787FE4F6D8FD75814A020451A9
:1006F00080828486888A8C81838587898B8D3B3B29
:09070000171F0C0763013B1701F0
:100611000E10C0F9A4B0999282F88090FFC6C88EDE
:100621000E1FC0CFA4868B9290C78082FFF0C1B10C
:10063100043400000000040800000000072D323BD4
:080641000C0907040F01380049
:07072D00AE071FEE70FA2277
:10051D0074102534F8E6F5A0E508600353A07FC2FA
:10052D00B27F1412072DD2B27F0212072D7410253F
:10053D0035F8E6F5A0E509600353A07FC2B37F143B
:10054D0012072DD2B37F0212072D741F2536F8E640
:10055D00F5A0E50A600353A07FC2B47F1412072DE6
:10056D00D2B47F0212072D74102537F8E6F5A0E5F9
:10057D000B600353A07FC2B57F1412072DD2B57F38
:04058D000202072D32
:0906D300E4F53BD2957F887E130B
:1006DC00AD07AC06ED1DAE0470011C4E6005120595
:0406EC001D80F1225A
:10070900E4FEC292EF139291EFC313FFD2920EBE91
:0407190008F0D29181
:01071D0022B9
:0F071E00C292D290120709AF05120709C29022AA
:1006AF00E4FDC292D291D290120709E4FFEDC31379
:1006BF00FDC292309103430580D2920FBF08EEC264
:0306CF0090AF05E4
:0106D2002205
:080591008B3C8A3D893E8D3F41
:100599007540FF7541067542F7E4FCECC3953F5081
:1005A9002AAB40AA41A94212035DFF1206AFAB3C38
:1005B900AA3DA93E8C82758300EF1203E8740125D8
:0B05C90042F542E43541F5410C80D0C2
:0105D4002204
:060496008B458A468947F0
:10049C00E4FCAB45AA46A9478C827583001203760F
:1004AC0075F00A84FFE92CF9E43AFA12035D75F051
:1004BC000A84E5F01203D6EFC454F0AB45AA46A962
:1004CC00478C827583001203A30CBC07C5E4FD7F27
:1004DC008E12071E7548FF754906754AF0E4FCAB91
:1004EC0048AA49A94A12035DFFAB45AA46A9478C05
:1004FC0082758300120376FD12071E7401254AF5DE
:10050C004AE43549F5490CBC07D57D807F8E02073E
:01051C001EC0
:080680008B3C8A3D893E8D3F51
:100688007540C1E4FCECC3953F501BAF401206AF68
:10069800AB3CAA3DA93E8C82758300EF1203E805A6
:0606A8004005400C80DF5C
:0106AE002229
:0805D5008B3F8A4089418D42F1
:1005DD00E4FD7F8E12071E7543C0E4FCECC395420B
:1005ED00501BAB3FAA40A9418C8275830012037644
:1005FD00FDAF4312071E054305430C80DF7D807F51
:04060D008E02071E34
:07073400AE071FEE70FA2270
:07064A007F0F7E001206DCA9
:10065100A2B082B14023C2957F64120734A2B08256
:10066100B1401BE538701720B105751E01800620C9
:0F067100B00C751E0275380122E4F538D29522BF
:10014500E4FF753D01120651E4F51E7F01742D2F64
:10015500F8E6FEC4540FF53CEE540FFE743E2FF83E
:10016500A606743E2FF8E6FEE53C75F00AA42EF6C9
:100175000FBF07D9E4F53C12064AE51E603924FE97
:10018500601B04702FE53D9006FE93FF743E253DF0
:10019500F8E6C39F500306801BE4F68017053DE58E
:1001A5003DD39406400EE4F53EFB7A00793E1204F9
:1001B50096D29522E4F51EE53C6003020249E53D31
:1001C50024FE601014603014602D14604D14605DC1
:1001D50024057070750901750A01E54075F00A84FA
:1001E500F534E54075F00A8485F035E53F75F00A8C
:1001F50084F536E53F8046E4F509750A01E5427563
:10020500F00A84F534E54275F00A8485F035E54158
:1002150075F00A84F536E5418023E4F509F50A759C
:10022500340A75350A75360A8543378017753402E1
:10023500E4F535E54475F00A84F536E54475F00ACC
:100245008485F037E53CB4B42AE53D24FE601024EE
:10025500FE600C240324FB5004600C8016800E7590
:10026500340A75350A800C75340A75350A75360AEF
:0802750075370A053C02017C0B
:10000300E4F53CF53DF53E120651E4F51E753C0161
:10001300740C253CF8E6FFC4540FF53D740C253CE5
:10002300F8EF540FF6740C253CF8E6FFE53D75F048
:100033000AA42FF6053CE53CB403D512064AE51E97
:10004300606424FE601B04705AE53E90070593FF2D
:10005300740C253EF8E6C39F5003068046E4F68001
:1000630042053EE53ED394034039753C01740C25AB
:100073003CF8E6FF75F00A84F53DC454F0FEEF75D5
:10008300F00A84E5F02EFF740C253CF8A607053C26
:10009300E53CB403D87B007A00790C7D041205D5C6
:1000A300D29522E4F51EE53D7077E53E14602214F7
:1000B300601F14604624037068E50C600AE4F509C8
:1000C300F50A7534018040E4F509F50A75340180B9
:1000D30048750901750A01E50E75F00A84F534E5E2
:1000E3000E75F00A8485F035E50D75F00A84F53652
:1000F300E50D75F00A8485F0378026E50F6012E47C
:10010300F509F50A75340275350AF53675370C802D
:1001130010E4F509F50A753402F53575360D7537B2
:100123000DE53DB4B417E53E24FE600B04700E7577
:10013300360A75370A800675340A75350A053D0295
:02014300003E7C
:10027D00753A01E4F53BC290FB7A00790C7D0412CE
:10028D0006807B007A00792D12049620B10C12069F
:10029D00D320B006120003753A0120B00C1206D31C
:1002AD0020B106120145753A01E53A606AE4F53A66
:1002BD00FB7A00792D7D07120591E52FC4540FF5BA
:1002CD0034E52F540FF535E52EC4540FF536E52ED4
:1002DD00540FF537E52E702EE50F602AE52FD394D8
:1002ED00074023E52F9421501DE53475F00AA4F540
:1002FD003B2535F53BD3940C400674F4253BF53B7B
:10030D00E53B25E0F53BE50C600DE50DB52E08E56B
:10031D000EB52F03753B787B007A00792D7D011288
:10032D000591E52D6539601E852D39E5395401F5A9
:10033D0009F50AE5397003753A01E53B6006153B91
:10034D00B2958002D2957F647E001206DC0202987F
:1004160002027DE493A3F8E493A34003F68001F27D
:1004260008DFF48029E493A3F85407240CC8C333E7
:10043600C4540F4420C8834004F456800146F6DFB6
:10044600E4800B0102040810204080900611E47E2F
:10045600019360BCA3FF543F30E509541FFEE493AB
:10046600A360010ECF54C025E060A840B8E493A372
:10047600FAE493A3F8E493A3C8C582C8CAC583CA9D
:10048600F0A3C8C582C8CAC583CADFE9DEE780BE55
:0106490000B0
:10035D00BB010689828A83E0225002E722BBFE029E
:09036D00E32289828A83E49322D1
:10037600BB010CE58229F582E5833AF583E022503C
:1003860006E92582F8E622BBFE06E92582F8E22286
:0D039600E58229F582E5833AF583E49322A0
:1003A300BB010FF8E58229F582E5833AF583E0285E
:1003B300F0225009C58229F8E58226F622BBFE0900
:1003C300C58229F8E22582F222F8EA2583F583E93A
:0303D3009328224A
:1003D600BB010689828A83F0225002F722BBFE0106
:0203E600F32200
:1003E800F8BB010DE58229F582E5833AF583E8F04B
:1003F800225006E92582C8F622BBFE05E92582C8F7
:02040800F222DE
:00000001FF
