:0300000002047681
:0C047600787FE4F6D8FD75814B0204BDD0
:1005FD0080828486888A8C81838587898B8D3B3B1D
:10060D00171F0C0763013B1701BCBAB8B5B3B1AFE7
:10061D00ACAAA8A6A5A4A3A19E9B9895928F8B8802
:10062D008582807D7A777573706E6C69676563619D
:0C063D005F5D5B59575553514F4D4C4ABF
:1006C9000E11C0F9A4B0999282F88090FFC6C88E25
:1006D9000E20C0CFA4868B9290C78082FFF0C1B153
:1006E900043500000000040900000000072E323B19
:0B06F9000C0907040F01390001080084
:0707E800AE071FEE70FA22BC
:1005890074112535F8E6F5A0E509600353A07FC28B
:10059900B27F141207E8D2B27F021207E87411255C
:1005A90036F8E6F5A0E50A600353A07FC2B37F14CD
:1005B9001207E8D2B37F021207E874202537F8E65C
:1005C900F5A0E50B600353A07FC2B47F141207E8BE
:1005D900D2B47F021207E874112538F8E6F5A0E5D0
:1005E9000C600353A07FC2B57F141207E8D2B57F10
:0405F900020207E80B
:09078E00E4F53CD2957F887E134E
:10079700AD07AC06ED1DAE0470011C4E60051205D9
:0407A7008980F12232
:1007AB00E4FEC292EF139291EFC313FFD2920EBEEF
:0407BB0008F0D291DF
:0107BF002217
:0F07C000C292D2901207ABAF051207ABC29022C4
:10076A00E4FDC292D291D2901207ABE4FFEDC3131B
:10077A00FDC292309103430580D2920FBF08EEC2A8
:03078A0090AF0528
:01078D002249
:080649008B3D8A3E893F8D4084
:100651007541FF754206754304E4FCECC3954050B7
:100661002AAB41AA42A9431203C9FF12076AAB3D53
:10067100AA3EA93F8C82758300EF120454740125B0
:0B06810043F543E43542F5420C80D005
:01068C00224B
:060502008B468A47894880
:10050800E4FCAB46AA47A9488C827583001203E233
:1005180075F00A84FFE92CF9E43AFA1203C975F078
:100528000A84E5F0120442EFC454F0AB46AA47A986
:10053800488C8275830012040F0CBC07C5E4FD7F4C
:100548008E1207C07549FF754A05754BFDE4FCAB73
:1005580049AA4AA94B1203C9FFAB46AA47A9488C26
:10056800827583001203E2FD1207C07401254BF562
:100578004BE4354AF54A0CBC07D57D807F8E0207CF
:01058800C0B2
:08073B008B3D8A3E893F8D4091
:100743007541C1E4FCECC39540501BAF4112076AED
:10075300AB3DAA3EA93F8C82758300EF120454057A
:060763004105410C80DF9E
:01076900226D
:08068D008B408A4189428D4334
:10069500E4FD7F8E1207C07544C0E4FCECC39543AE
:1006A500501BAB40AA41A9428C827583001203E21C
:1006B500FDAF441207C0054405440C80DF7D807FF3
:0406C5008E0207C0DA
:0707EF00AE071FEE70FA22B5
:0E07CF00759DC0E4F5BD75BC807FC80207EFC4
:0607FD00EF4488F5BC2268
:0B07DD00E5BC30E4FB53BCEFAFBD22D5
:0707F600AE071FEE70FA22AE
:070705007F0F7E0012079731
:10070C00A2B082B14023C2957F641207F6A2B082D8
:10071C00B1401BE539701720B105751F018006200B
:0F072C00B00C751F0275390122E4F539D2952200
:10029100E4FF753E0112070CE4F51F7F01742E2F58
:1002A100F8E6FEC4540FF53DEE540FFE743F2FF8EF
:1002B100A606743F2FF8E6FEE53D75F00AA42EF67A
:1002C1000FBF07D9E4F53D120705E51F603924FE8C
:1002D100601B04702FE53E90060B93FF743F253E93
:1002E100F8E6C39F500306801BE4F68017053EE540
:1002F1003ED39406400EE4F53FFB7A00793F1205A8
:1003010002D29522E4F51FE53D6003020395E53E27
:1003110024FE601014603014602D14604D14605D73
:1003210024057070750A01750B01E54175F00A84A9
:10033100F535E54175F00A8485F036E54075F00A3A
:1003410084F537E5408046E4F50A750B01E5437510
:10035100F00A84F535E54375F00A8485F036E54207
:1003610075F00A84F537E5428023E4F50AF50B754B
:10037100350A75360A75370A85443880177535028E
:10038100E4F536E54575F00A84F537E54575F00A7B
:100391008485F038E53DB4B42AE53E24FE6010249E
:1003A100FE600C240324FB5004600C8016800E7543
:1003B100350A75360A800C75350A75360A75370A9D
:0803C10075380A053D0202C86F
:10014F00E4F53DF53EF53F12070CE4F51F753D0153
:10015F00740D253DF8E6FFC4540FF53E740D253D93
:10016F00F8EF540FF6740D253DF8E6FFE53E75F0F8
:10017F000AA42FF6053DE53DB403D5120705E51F8B
:10018F00606424FE601B04705AE53F90061293FFD3
:10019F00740D253FF8E6C39F5003068046E4F680B2
:1001AF0042053FE53FD394034039753D01740D255A
:1001BF003DF8E6FF75F00A84F53EC454F0FEEF7586
:1001CF00F00A84E5F02EFF740D253DF8A607053DD6
:1001DF00E53DB403D87B007A00790D7D0412068DBE
:1001EF00D29522E4F51FE53E7077E53F14602214A7
:1001FF00601F14604624037068E50D600AE4F50A79
:10020F00F50B7535018040E4F50AF50B7535018066
:10021F0048750A01750B01E50F75F00A84F535E590
:10022F000F75F00A8485F036E50E75F00A84F53700
:10023F00E50E75F00A8485F0388026E5106012E42B
:10024F00F50AF50B75350275360AF53775380C80DA
:10025F0010E4F50AF50B753502F53675370D75385F
:10026F000DE53EB4B417E53F24FE600B04700E7528
:10027F00370A75380A800675350A75360A053E0243
:02028F00018AE2
:10000300753B01E4F53CC290FB7A00790D7D041247
:10001300073B1207CF7B007A00792E12050220B12D
:100023000C12078E20B00612014F753B0120B00C55
:1000330012078E20B106120291753B01E53B606AFF
:10004300E4F53BFB7A00792E7D07120649E530C4BF
:10005300540FF535E530540FF536E52FC4540FF53D
:1000630037E52F540FF538E52F702EE510602AE59C
:1000730030D394074023E5309421501DE53575F0C6
:100083000AA4F53C2536F53CD3940C400674F425BC
:100093003CF53CE53C25E0F53CE50D600DE50EB592
:1000A3002F08E50FB53003753C787B007A00792E75
:1000B3007D01120649E52E653A7003020145852E3E
:1000C3003AE53A7003753B01532E0FE52EC39407AF
:1000D3005024E53A5401F50AF50BE530C4540FF505
:1000E30035E530540FF536E52FC4540FF537E52FBA
:1000F300540FF5388040E52ED3940640397F07121C
:1001030007FD1207DD8F08E4FFEF90061693FEE567
:1001130008D39E50040FBF32F01F8F08750B017573
:10012300370B75380AE50875F00A84F535E5087567
:10013300F00A8485F036E53C6006153CB2958002F2
:0C014300D2957F647E0012079702002115
:10048200020003E493A3F8E493A34003F68001F28D
:1004920008DFF48029E493A3F85407240CC8C3337B
:1004A200C4540F4420C8834004F456800146F6DF4A
:1004B200E4800B01020408102040809006C9E47E0B
:1004C200019360BCA3FF543F30E509541FFEE4933F
:1004D200A360010ECF54C025E060A840B8E493A306
:1004E200FAE493A3F8E493A3C8C582C8CAC583CA31
:1004F200F0A3C8C582C8CAC583CADFE9DEE780BEE9
:0107040000F4
:1003C900BB010689828A83E0225002E722BBFE0232
:0903D900E32289828A83E4932265
:1003E200BB010CE58229F582E5833AF583E02250D0
:1003F20006E92582F8E622BBFE06E92582F8E2221A
:0D040200E58229F582E5833AF583E4932233
:10040F00BB010FF8E58229F582E5833AF583E028F1
:10041F00F0225009C58229F8E58226F622BBFE0993
:10042F00C58229F8E22582F222F8EA2583F583E9CD
:03043F00932822DD
:10044200BB010689828A83F0225002F722BBFE0199
:02045200F32293
:10045400F8BB010DE58229F582E5833AF583E8F0DE
:10046400225006E92582C8F622BBFE05E92582C88A
:02047400F22272
:00000001FF
