:030000000204C235
:0C04C200787FE4F6D8FD75814E02050934
:1006490080828486888A8C81838587898B8D3B3BD0
:10065900171F0C0763013B170101BCBAB8B5B3B149
:10066900AFACAAA8A6A5A4A3A19E9B9895928F8B8F
:10067900888582807D7A777573706E6C696765632A
:0D068900615F5D5B59575553514F4D4C4A11
:1006DA000E12C0F9A4B0999282F88090FFC6C88E13
:1006EA000E22C0CFA4868B9290C78082FFF0C1B140
:1006FA00043800000000040900000000013000076F
:0E070A0031323B0C0907040F013C00010800CE
:07083B00AE071FEE70FA2268
:1005D50074122538F8E6F5A0E509600353A07FC23B
:1005E500B27F0A12083BD2B2AF3012083B74122513
:1005F50039F8E6F5A0E50A600353A07FC2B37F0A88
:1006050012083BD2B3AF3012083B7422253AF8E604
:10061500F5A0E50B600353A07FC2B47F0A12083B27
:10062500D2B4AF3012083B7412253BF8E6F5A0E5CD
:100635000C600353A07FC2B57F0A12083BD2B5AF49
:040645003002083B3C
:0C07DE00753002E4F53FD2957F107E27B5
:1007EA00AD07AC06ED1DAE0470011C4E6005120586
:0407FA00D580F12293
:1007FE00E4FEC292EF139291EFC313FFD2920EBE9C
:04080E0008F0D2918B
:0108120022C3
:0F081300C292D2901207FEAF051207FEC29022CA
:1007BA00E4FDC292D291D2901207FEE4FFEDC31378
:1007CA00FDC292309103430580D2920FBF08EEC258
:0307DA0090AF05D8
:0107DD0022F9
:080696008B408A4189428D432B
:10069E007544FF754506754650E4FCECC395435012
:1006AE002AAB44AA45A946120415FF1207BAAB405D
:1006BE00AA41A9428C82758300EF1204A074012511
:0B06CE0046F546E43545F5450C80D0AC
:0106D90022FE
:06054E008B498A4A894B2B
:10055400E4FCAB49AA4AA94B8C8275830012042E91
:1005640075F00A84FFE92CF9E43AFA12041575F0DF
:100574000A84E5F012048EEFC454F0AB49AA4AA9E8
:100584004B8C8275830012045B0CBC07C5E4FD7FB1
:100594008E120813754CFF754D06754E49E4FCAB7D
:1005A4004CAA4DA94E120415FFAB49AA4AA94B8C7B
:1005B4008275830012042EFD1208137401254EF572
:1005C4004EE4354DF54D0CBC07D57D807F8E020879
:0105D4001313
:08078B008B408A4189428D4335
:100793007544C1E4FCECC39543501BAF441207BA44
:1007A300AB40AA41A9428C82758300EF1204A005D5
:0607B3004405440C80DF48
:0107B900221D
:080719008B438A4489458D469B
:10072100E4FD7F8E1208137547C0E4FCECC39546C7
:10073100501BAB43AA44A9458C8275830012042E39
:10074100FDAF47120813054705470C80DF7D807F09
:040751008E020813F9
:07084200AE071FEE70FA2261
:0E082200759DC0E4F5BD75BC807FC80208421C
:06085000EF4488F5BC2214
:0B083000E5BC30E4FB53BCEFAFBD2281
:07084900AE071FEE70FA225A
:070755007F0F7E001207EA8E
:10075C00A2B082B14023C2957F64120849A2B08234
:10076C00B1401BE53C701720B105752001800620B7
:0F077C00B00C752002753C0122E4F53CD29522A9
:1002CC00E4FF75410112075CE4F5207F0174312FC6
:1002DC00F8E6FEC4540FF540EE540FFE74422FF8AE
:1002EC00A60674422FF8E6FEE54075F00AA42EF639
:1002FC000FBF07D9E4F540F521E521B4C803D29529
:10030C0022120755E520603EE4F521E52024FE602D
:10031C001B04702FE54190065793FF74422541F85A
:10032C00E6C39F500306801BE4F680170541E541A8
:10033C00D39406400EE4F542FB7A00794212054E46
:10034C00D29522E4F520E54060030203E10521E5A6
:10035C004124FE601014603014602D14604D146044
:10036C005D24057070750A01750B01E54475F00A82
:10037C0084F538E54475F00A8485F039E54375F069
:10038C000A84F53AE5438046E4F50A750B01E54627
:10039C0075F00A84F538E54675F00A8485F039E580
:1003AC004575F00A84F53AE5458023E4F50AF50B2A
:1003BC0075380A75390A753A0A85473B80177538BE
:1003CC0002E4F539E54875F00A84F53AE54875F02C
:1003DC000A8485F03BE540B4B42AE54124FE601064
:1003EC0024FE600C240324FB5004600C8016800E49
:1003FC0075380A75390A800C75380A75390A753AD8
:09040C000A753B0A0540020305D4
:10000300E4F540F541F54212075CE4F52075400143
:10001300740D2540F8E6FFC4540FF541740D2540D7
:10002300F8EF540FF6740D2540F8E6FFE54175F03F
:100033000AA42FF60540E540B403D5E4F521E521F4
:10004300B4C803D29522120755E5206069E4F5216F
:10005300E52024FE601B04705AE54290065E93FF80
:10006300740D2542F8E6C39F5003068046E4F680EC
:10007300420542E542D394044039754001740D258D
:1000830040F8E6FF75F00A84F541C454F0FEEF75BD
:10009300F00A84E5F02EFF740D2540F8A60705400D
:1000A300E540B403D87B007A00790D7D051207196A
:1000B300D29522E4F520E54160030201570521E5CD
:1000C3004214602814602514604C14606124046099
:1000D30003020157E50D600AE4F50AF50B753801D3
:1000E3008058E4F50AF50B7538018060750A0175CF
:1000F3000B01E50F75F00A84F538E50F75F00A84F6
:1001030085F039E50E75F00A84F53AE50E75F00AC7
:100113008485F03B803EE510600AE4F50AF50B7533
:1001230038028016E4F50AF50B753802801EE511D6
:100133006012E4F50AF50B75380375390AF53A755B
:100143003B0C8010E4F50AF50B753803F539753A65
:100153000D753B0DE541B4B417E54224FE600B0475
:10016300700E753A0A753B0A800675380A75390AA6
:050173000541020041FE
:10017800753E01E4F53FC290FB7A00790D7D0512CA
:10018800078B12082220B10C1207DE20B1061200DC
:1001980003753E0120B00C1207DE20B0061202CC17
:1001A800753E01E53E6055E4F53EFB7A0079317D08
:1001B80007120696E533C4540FF538700375380AEC
:1001C800E533540FF539E532C4540FF53AE53254A6
:1001D8000FF53BE5327014E5106010E533D3940752
:1001E8004009E53394215003753F04E50D600DE5A2
:1001F8000EB53208E50FB53303753F787B007A00FA
:1002080079317D01120696E531653D70030202C21F
:1002180085313DE53D7003753E0153310FE531C32E
:1002280094075031E53D20E0047F0180027F008F74
:100238000A850A0BE533C4540FF538700375380A7C
:10024800E533540FF539E532C4540FF53AE5325425
:100258000FF53B8043E531D39406403C7F071208F5
:10026800501208308F08E4FFEF90066393FEE5080C
:10027800D39E50040FBF32F01F8F08E4F50A750BA8
:1002880001753A0B753B0AE50875F00A84F538E5FF
:100298000875F00A8485F039E53F6006153FB29588
:1002A8008002D295E51160127F06120850120830BC
:1002B8008F30E53054E02402F5307F327E0012079B
:0402C800EA02018DB8
:1004CE00020178E493A3F8E493A34003F68001F2CB
:1004DE0008DFF48029E493A3F85407240CC8C3332F
:1004EE00C4540F4420C8834004F456800146F6DFFE
:1004FE00E4800B01020408102040809006DAE47EAE
:10050E00019360BCA3FF543F30E509541FFEE493F2
:10051E00A360010ECF54C025E060A840B8E493A3B9
:10052E00FAE493A3F8E493A3C8C582C8CAC583CAE4
:10053E00F0A3C8C582C8CAC583CADFE9DEE780BE9C
:0107180000E0
:10041500BB010689828A83E0225002E722BBFE02E5
:09042500E32289828A83E4932218
:10042E00BB010CE58229F582E5833AF583E0225083
:10043E0006E92582F8E622BBFE06E92582F8E222CD
:0D044E00E58229F582E5833AF583E49322E7
:10045B00BB010FF8E58229F582E5833AF583E028A5
:10046B00F0225009C58229F8E58226F622BBFE0947
:10047B00C58229F8E22582F222F8EA2583F583E981
:03048B0093282291
:10048E00BB010689828A83F0225002F722BBFE014D
:02049E00F32247
:1004A000F8BB010DE58229F582E5833AF583E8F092
:1004B000225006E92582C8F622BBFE05E92582C83E
:0204C000F22226
:00000001FF
