:0300000002067C79
:0C067C00787FE4F6D8FD75815B0206C3B0
:1004C30080828486888A8C81838587898B8D3B3B58
:1004D300171F0C0763013B1701017877757372715E
:1004E300706E6C6B6A696867666563615F5D5B59B3
:1004F300575553514F4E4C4A4846444543413F3E5E
:100503003D3C3B3A39383736353433323118301CB9
:100513001020401C10181020101C1018401C202004
:10052300201C2018202080FF20301C1018201520AC
:100533001C202020264020202B2026202020308015
:10054300FF20201C101810202026202B2030202BC9
:100553004020201C101810202026202B2030202B78
:100563004020301C10182015201C2020202640205D
:10057300202B2026202020308020301C1020101C0F
:1005830010202026202B2030202B4020151F052053
:10059300101C10202026202B2030202B4020301C24
:1005A30010182015201C202020264020202B202638
:1005B300202020303020301C1018401C2020202602
:0C05C30040136018201540134018800001
:100872000E2CC0F9A4B0999282F88090FFC6C88E5F
:100882000E3EC0CFA4868B9290C78082FFF0C1B18A
:10089200045600000000042300000000014E00077F
:1008A2004F323B0C0907040F015A00012100013DA0
:0708B20000012200015B00C0
:07000300AE071FEE70FA22A8
:10078F00742C2556F8E6F5A0E523600353A07FC22D
:10079F00B27F0A120003D2B2AF4E120003742C259F
:1007AF0057F8E6F5A0E524600353A07FC2B37F0A94
:1007BF00120003D2B3AF4E120003743E2558F8E671
:1007CF00F5A0E525600353A07FC2B47F0A12000392
:1007DF00D2B4AF4E120003742C2559F8E6F5A0E5FC
:1007EF0026600353A07FC2B57F0A120003D2B5AFB4
:0407FF004E020003A3
:0C09C800754E02E4F53DD2957F107E27AD
:1009D400AD07AC06ED1DAE0470011C4E6005120798
:0409E4008F80F122ED
:1009E800E4FEC292EF139291EFC313FFD2920EBEB0
:0409F80008F0D291A0
:0109FC0022D8
:0F0A0F00C292D2901209E8AF051209E8C29022F4
:1009A400E4FDC292D291D2901209E8E4FFEDC313A0
:1009B400FDC292309103430580D2920FBF08EEC26C
:0309C40090AF05EC
:0109C700220D
:0808BA008B0A8A0B890C8D0DDD
:1008C200750EFF750F047510CAE4FCECC3950D504C
:1008D2002AAB0EAA0FA9101205CFFF1209A4AB0A68
:1008E200AA0BA90C8C82758300EF12065A7401259B
:0B08F20010F510E4350FF50F0C80D05E
:0108FD0022D8
:060708008B138A14891511
:10070E00E4FCAB13AA14A9158C827583001205E8BC
:10071E0075F00A84FFE92CF9E43AFA1205CF75F068
:10072E000A84E5F0120648EFC454F0AB13AA14A9DC
:10073E00158C827583001206150CBC07C5E4FD7F6F
:10074E008E120A0F7516FF7517047518C3E4FCABED
:10075E0016AA17A9181205CFFFAB13AA14A9158C48
:10076E00827583001205E8FD120A0F74012518F533
:10077E0018E43517F5170CBC07D57D807F8E020A5D
:01078E000F5B
:080975008B0A8A0B890C8D0D21
:10097D00750EC1E4FCECC3950D501BAF0E1209A40E
:10098D00AB0AAA0BA90C8C82758300EF12065A05CF
:06099D000E050E0C80DFC8
:0109A3002231
:0808FE008B0D8A0E890F8D108D
:10090600E4FD7F8E120A0F7511C0E4FCECC395104E
:10091600501BAB0DAA0EA90F8C827583001205E839
:10092600FDAF11120A0F051105110C80DF7D807FC6
:040936008E020A0F14
:070A4000AE071FEE70FA2261
:0E0A1E00759DC0E4F5BD75BC807FC8020A401E
:060A4E00EF4488F5BC2214
:0B0A2C00E5BC30E4FB53BCEFAFBD2283
:03000B00020A37AF
:090A3700758CD8758AEF15223286
:1009FD00EF75F003A4FFAEF0EF1F70011E144E70E3
:010A0D00F7F1
:010A0E0022C5
:030A5400DFFE22A0
:070A4700AE071FEE70FA225A
:04080300AD07AC068B
:10080700C3ED940AEC94005018E4FBFAC3EB9DEA9D
:100817009C5057B2957F32120A470BBB00010A80E2
:10082700EBE55B90051093F54D700BF55B7FE812D8
:100837000A54D2958023E54DB4FF0B055B7F641204
:100847000A54C28C80DBAF5B055BEF90051093F514
:100857003CAF5B055BEF93F522D28CE5226009B2D2
:0A08670095AF3C1209FD80F3C28C2E
:010871002264
:07093A007F0F7E001209D4BB
:10094100A2B082B140287F027E001208037F6412A8
:100951000A47A2B082B1401BE55A701720B1057554
:100961003A01800620B00C753A02755A0122E4F56D
:040971005AD295229F
:10037A00E4FF750B01120941E4F53A7F01744F2F2E
:10038A00F8E6FEC4540FF50AEE540FFE740C2FF86B
:10039A00A606740C2FF8E6FEE50A75F00AA42EF6F6
:1003AA000FBF07D9E4F50AF53BE53BB4C803D2957C
:1003BA002212093AE53A603EE4F53BE53A24FE604A
:1003CA001B04702FE50B9004D193FF740C250BF8D6
:1003DA00E6C39F500306801BE4F68017050BE50B66
:1003EA00D39406400EE4F50CFB7A00790C12070848
:1003FA00D29522E4F53AE50A600302048F053BE54B
:10040A000B24FE601014603014602D14604D1460CB
:10041A005D24057070752401752501E50E75F00AD5
:10042A0084F556E50E75F00A8485F057E50D75F0EA
:10043A000A84F558E50D8046E4F524752501E51092
:10044A0075F00A84F556E51075F00A8485F057E5CB
:10045A000F75F00A84F558E50F8023E4F524F52595
:10046A0075560A75570A75580A85115980177556AF
:10047A0002E4F557E51275F00A84F558E51275F0AD
:10048A000A8485F059E50AB4B42AE50B24FE601003
:10049A0024FE600C240324FB5004600C8016800E9A
:1004AA0075560A75570A800C75560A75570A755893
:0904BA000A75590A050A0203B390
:10020500E4F50AF50BF50C120941E4F53A750A0116
:100215007427250AF8E6FFC4540FF50B7427250A41
:10022500F8EF540FF67427250AF8E6FFE50B75F08D
:100235000AA42FF6050AE50AB403D5E4F53BE53B28
:10024500B4C803D2952212093AE53A6069E4F53B50
:10025500E53A24FE601B04705AE50C9004D893FF20
:100265007427250CF8E6C39F5003068046E4F68004
:1002750042050CE50CD394044039750A0174272511
:100285000AF8E6FF75F00A84F50BC454F0FEEF7525
:10029500F00A84E5F02EFF7427250AF8A607050A5B
:1002A500E50AB403D87B007A0079277D051208FE9C
:1002B500D29522E4F53AE50B6003020359053BE5C7
:1002C5000C14602814602514604C146061240460CB
:1002D50003020359E527600AE4F524F5257556015F
:1002E500806AE4F524F525755601804E752401755F
:1002F5002501E52975F00A84F556E52975F00A8486
:1003050085F057E52875F00A84F558E52875F00A53
:100315008485F059803EE52A600AE4F524F52575C3
:1003250056028028E4F524F525755602800CE52B48
:100335006012E4F524F525755603F55775580D75C6
:10034500590D8010E4F524F52575560375570AF502
:100355005875590CE50BB4B417E50C24FE600B0475
:10036500700E75580A75590A800675560A75570A2A
:05037500050B0202432C
:10000E00750901D294C200C2907B007A0079277DD7
:10001E0005120975120A1E53890F438901758CD872
:10002E00758AEF75A88220B1131209C820B1061285
:10003E000205750901C200D294E4F53D20B01312F9
:10004E0009C820B00612037A750901C200D294E4E1
:10005E00F53DE509605C200059E4F509FB7A00796D
:10006E004F7D071208BAE551C4540FF5567003754B
:10007E00560AE551540FF557E550C4540FF558E59F
:10008E0050540FF559E5507014E52A6010E551D320
:10009E0094074009E55194215003753D04E527600E
:1000AE0011E528B5500CE529B55107753D78D200FC
:1000BE00C2943000030201CC7B007A00794F7D019F
:1000CE001208BAE54F650870030201CC854F08E5AA
:1000DE00087003750901534F0FE54FC39406500581
:1000EE00E4F54C8003854F4CE54C24FA603E1460D9
:1000FE0065146075240860030201B3E50820E0046E
:10010E007F0180027F008F24852425E551C4540F82
:10011E00F556700375560AE551540FF557E550C460
:10012E00540FF558E550540FF5598079E4F52475C0
:10013E002501E55375F00A84F556E55375F00A84EA
:10014E0085F057E55275F00A84F558E55275F00AB8
:10015E008485F059804FE4F524F52575560A7557B8
:10016E000A75580A855459803C7F07120A4E120AA6
:10017E002C8F21E4FFEF9004DD93FEE521D39E50FA
:10018E00040FBF32F01F8F21E4F524752501755839
:10019E000B75590AE52175F00A84F556E52175F0BF
:1001AE000A8485F057E52B60152000127F06120A8F
:1001BE004E120A2C8F4EE54E54382402F54E200076
:1001CE00047F32800E755608755708755808755994
:1001DE00087F147E001209D4E53D6016FF7E0012E2
:1001EE000803153DE53D6003020034D294C20002BF
:0701FE000034D29502003429
:1006880002000EE493A3F8E493A34003F68001F27A
:1006980008DFF48029E493A3F85407240CC8C33373
:1006A800C4540F4420C8834004F456800146F6DF42
:1006B800E4800B0102040810204080900872E47E58
:1006C800019360BCA3FF543F30E509541FFEE49337
:1006D800A360010ECF54C025E060A840B8E493A3FE
:1006E800FAE493A3F8E493A3C8C582C8CAC583CA29
:1006F800F0A3C8C582C8CAC583CADFE9DEE780BEE1
:0108B900003E
:1005CF00BB010689828A83E0225002E722BBFE022A
:0905DF00E32289828A83E493225D
:1005E800BB010CE58229F582E5833AF583E02250C8
:1005F80006E92582F8E622BBFE06E92582F8E22212
:0D060800E58229F582E5833AF583E493222B
:10061500BB010FF8E58229F582E5833AF583E028E9
:10062500F0225009C58229F8E58226F622BBFE098B
:10063500C58229F8E22582F222F8EA2583F583E9C5
:03064500932822D5
:10064800BB010689828A83F0225002F722BBFE0191
:02065800F3228B
:10065A00F8BB010DE58229F582E5833AF583E8F0D6
:10066A00225006E92582C8F622BBFE05E92582C882
:02067A00F2226A
:00000001FF
